{
  "_format": "hh-sol-artifact-1",
  "contractName": "DAEntrance",
  "sourceName": "contracts/DAEntrance.sol",
  "abi": [
    {
      "anonymous": false,
      "inputs": [
        {
          "indexed": true,
          "internalType": "address",
          "name": "beneficiary",
          "type": "address"
        },
        {
          "indexed": true,
          "internalType": "uint256",
          "name": "sampleHeight",
          "type": "uint256"
        },
        {
          "indexed": true,
          "internalType": "uint256",
          "name": "epoch",
          "type": "uint256"
        },
        {
          "indexed": false,
          "internalType": "uint256",
          "name": "quorumId",
          "type": "uint256"
        },
        {
          "indexed": false,
          "internalType": "bytes32",
          "name": "dataRoot",
          "type": "bytes32"
        },
        {
          "indexed": false,
          "internalType": "uint256",
          "name": "quality",
          "type": "uint256"
        },
        {
          "indexed": false,
          "internalType": "uint256",
          "name": "lineIndex",
          "type": "uint256"
        },
        {
          "indexed": false,
          "internalType": "uint256",
          "name": "sublineIndex",
          "type": "uint256"
        }
      ],
      "name": "DAReward",
      "type": "event"
    },
    {
      "anonymous": false,
      "inputs": [
        {
          "indexed": false,
          "internalType": "bytes32",
          "name": "dataRoot",
          "type": "bytes32"
        },
        {
          "indexed": false,
          "internalType": "uint256",
          "name": "epoch",
          "type": "uint256"
        },
        {
          "indexed": false,
          "internalType": "uint256",
          "name": "quorumId",
          "type": "uint256"
        }
      ],
      "name": "DataUpload",
      "type": "event"
    },
    {
      "anonymous": false,
      "inputs": [
        {
          "indexed": false,
          "internalType": "bytes32",
          "name": "dataRoot",
          "type": "bytes32"
        },
        {
          "indexed": false,
          "internalType": "uint256",
          "name": "epoch",
          "type": "uint256"
        },
        {
          "indexed": false,
          "internalType": "uint256",
          "name": "quorumId",
          "type": "uint256"
        }
      ],
      "name": "ErasureCommitmentVerified",
      "type": "event"
    },
    {
      "inputs": [],
      "name": "DA_SIGNERS",
      "outputs": [
        {
          "internalType": "contract IDASigners",
          "name": "",
          "type": "address"
        }
      ],
      "stateMutability": "view",
      "type": "function"
    },
    {
      "inputs": [],
      "name": "MAX_TARGET_QUALITY",
      "outputs": [
        {
          "internalType": "uint256",
          "name": "",
          "type": "uint256"
        }
      ],
      "stateMutability": "view",
      "type": "function"
    },
    {
      "inputs": [],
      "name": "SLICE_DENOMINATOR",
      "outputs": [
        {
          "internalType": "uint256",
          "name": "",
          "type": "uint256"
        }
      ],
      "stateMutability": "view",
      "type": "function"
    },
    {
      "inputs": [],
      "name": "SLICE_NUMERATOR",
      "outputs": [
        {
          "internalType": "uint256",
          "name": "",
          "type": "uint256"
        }
      ],
      "stateMutability": "view",
      "type": "function"
    },
    {
      "inputs": [],
      "name": "TARGET_ROUND_SUBMISSIONS",
      "outputs": [
        {
          "internalType": "uint256",
          "name": "",
          "type": "uint256"
        }
      ],
      "stateMutability": "view",
      "type": "function"
    },
    {
      "inputs": [
        {
          "internalType": "bytes32",
          "name": "_dataRoot",
          "type": "bytes32"
        },
        {
          "internalType": "uint256",
          "name": "_epoch",
          "type": "uint256"
        },
        {
          "internalType": "uint256",
          "name": "_quorumId",
          "type": "uint256"
        }
      ],
      "name": "commitmentExists",
      "outputs": [
        {
          "internalType": "bool",
          "name": "",
          "type": "bool"
        }
      ],
      "stateMutability": "view",
      "type": "function"
    },
    {
      "inputs": [],
      "name": "initialize",
      "outputs": [],
      "stateMutability": "nonpayable",
      "type": "function"
    },
    {
      "inputs": [],
      "name": "initialized",
      "outputs": [
        {
          "internalType": "bool",
          "name": "",
          "type": "bool"
        }
      ],
      "stateMutability": "view",
      "type": "function"
    },
    {
      "inputs": [],
      "name": "nextSampleHeight",
      "outputs": [
        {
          "internalType": "uint256",
          "name": "",
          "type": "uint256"
        }
      ],
      "stateMutability": "view",
      "type": "function"
    },
    {
      "inputs": [],
      "name": "roundSubmissions",
      "outputs": [
        {
          "internalType": "uint256",
          "name": "",
          "type": "uint256"
        }
      ],
      "stateMutability": "view",
      "type": "function"
    },
    {
      "inputs": [],
      "name": "sampleTask",
      "outputs": [
        {
          "components": [
            {
              "internalType": "bytes32",
              "name": "sampleHash",
              "type": "bytes32"
            },
            {
              "internalType": "uint256",
              "name": "quality",
              "type": "uint256"
            },
            {
              "internalType": "uint64",
              "name": "sampleHeight",
              "type": "uint64"
            },
            {
              "internalType": "uint64",
              "name": "numSubmissions",
              "type": "uint64"
            }
          ],
          "internalType": "struct SampleTask",
          "name": "",
          "type": "tuple"
        }
      ],
      "stateMutability": "nonpayable",
      "type": "function"
    },
    {
      "inputs": [
        {
          "internalType": "bytes32[]",
          "name": "_dataRoots",
          "type": "bytes32[]"
        }
      ],
      "name": "submitOriginalData",
      "outputs": [],
      "stateMutability": "payable",
      "type": "function"
    },
    {
      "inputs": [
        {
          "components": [
            {
              "internalType": "uint64",
              "name": "sampleHeight",
              "type": "uint64"
            },
            {
              "internalType": "uint64",
              "name": "epoch",
              "type": "uint64"
            },
            {
              "internalType": "uint64",
              "name": "quorumId",
              "type": "uint64"
            },
            {
              "internalType": "uint32",
              "name": "lineIndex",
              "type": "uint32"
            },
            {
              "internalType": "uint32",
              "name": "sublineIndex",
              "type": "uint32"
            },
            {
              "internalType": "uint256",
              "name": "quality",
              "type": "uint256"
            },
            {
              "internalType": "bytes32",
              "name": "dataRoot",
              "type": "bytes32"
            },
            {
              "internalType": "bytes32[3]",
              "name": "blobRoots",
              "type": "bytes32[3]"
            },
            {
              "internalType": "bytes32[]",
              "name": "proof",
              "type": "bytes32[]"
            },
            {
              "internalType": "bytes",
              "name": "data",
              "type": "bytes"
            }
          ],
          "internalType": "struct SampleResponse",
          "name": "rep",
          "type": "tuple"
        }
      ],
      "name": "submitSamplingResponse",
      "outputs": [],
      "stateMutability": "nonpayable",
      "type": "function"
    },
    {
      "inputs": [
        {
          "components": [
            {
              "internalType": "bytes32",
              "name": "dataRoot",
              "type": "bytes32"
            },
            {
              "internalType": "uint256",
              "name": "epoch",
              "type": "uint256"
            },
            {
              "internalType": "uint256",
              "name": "quorumId",
              "type": "uint256"
            },
            {
              "components": [
                {
                  "internalType": "uint256",
                  "name": "X",
                  "type": "uint256"
                },
                {
                  "internalType": "uint256",
                  "name": "Y",
                  "type": "uint256"
                }
              ],
              "internalType": "struct BN254.G1Point",
              "name": "erasureCommitment",
              "type": "tuple"
            },
            {
              "internalType": "bytes",
              "name": "quorumBitmap",
              "type": "bytes"
            },
            {
              "components": [
                {
                  "internalType": "uint256[2]",
                  "name": "X",
                  "type": "uint256[2]"
                },
                {
                  "internalType": "uint256[2]",
                  "name": "Y",
                  "type": "uint256[2]"
                }
              ],
              "internalType": "struct BN254.G2Point",
              "name": "aggPkG2",
              "type": "tuple"
            },
            {
              "components": [
                {
                  "internalType": "uint256",
                  "name": "X",
                  "type": "uint256"
                },
                {
                  "internalType": "uint256",
                  "name": "Y",
                  "type": "uint256"
                }
              ],
              "internalType": "struct BN254.G1Point",
              "name": "signature",
              "type": "tuple"
            }
          ],
          "internalType": "struct IDAEntrance.CommitRootSubmission[]",
          "name": "_submissions",
          "type": "tuple[]"
        }
      ],
      "name": "submitVerifiedCommitRoots",
      "outputs": [],
      "stateMutability": "nonpayable",
      "type": "function"
    },
    {
      "inputs": [],
      "name": "targetQuality",
      "outputs": [
        {
          "internalType": "uint256",
          "name": "",
          "type": "uint256"
        }
      ],
      "stateMutability": "view",
      "type": "function"
    },
    {
      "inputs": [],
      "name": "updateSampleRound",
      "outputs": [],
      "stateMutability": "nonpayable",
      "type": "function"
    },
    {
      "inputs": [
        {
          "internalType": "bytes32",
          "name": "_dataRoot",
          "type": "bytes32"
        },
        {
          "internalType": "uint256",
          "name": "_epoch",
          "type": "uint256"
        },
        {
          "internalType": "uint256",
          "name": "_quorumId",
          "type": "uint256"
        }
      ],
      "name": "verifiedErasureCommitment",
      "outputs": [
        {
          "components": [
            {
              "internalType": "uint256",
              "name": "X",
              "type": "uint256"
            },
            {
              "internalType": "uint256",
              "name": "Y",
              "type": "uint256"
            }
          ],
          "internalType": "struct BN254.G1Point",
          "name": "",
          "type": "tuple"
        }
      ],
      "stateMutability": "view",
      "type": "function"
    },
    {
      "stateMutability": "payable",
      "type": "receive"
    }
  ],
  "bytecode": "0x610120604052611000608052600360a052600860c052620000266204000060001962000043565b60e0526014610100523480156200003c57600080fd5b5062000066565b6000826200006157634e487b7160e01b600052601260045260246000fd5b500490565b60805160a05160c05160e05161010051612bc962000114600039600081816101a80152818161042e0152818161045a0152818161047b015281816104de01528181610502015261061b0152600081816101660152818161055b015281816105850152610a0c0152600081816102100152610f190152600081816101dc0152610f440152600081816102b00152818161080401528181610ab201528181610b560152610e270152612bc96000f3fe6080604052600436106101025760003560e01c80637397eb3311610095578063988ea94e11610064578063988ea94e146102ff5780639da3a69b14610354578063d4ae59c9146103d5578063eafed6ce146103e8578063ff1877481461040857600080fd5b80637397eb3314610268578063795068bc1461027e578063807f063a1461029e5780638129fc1c146102ea57600080fd5b80635626a47b116100d15780635626a47b146101ca578063602b245a146101fe5780636a53525d146102325780636c3978501461025257600080fd5b8063158ef93e1461010e5780632c1a5b741461013d578063411f2e19146101545780635127d83d1461019657600080fd5b3661010957005b600080fd5b34801561011a57600080fd5b506000546101289060ff1681565b60405190151581526020015b60405180910390f35b34801561014957600080fd5b5061015261041e565b005b34801561016057600080fd5b506101887f000000000000000000000000000000000000000000000000000000000000000081565b604051908152602001610134565b3480156101a257600080fd5b506101887f000000000000000000000000000000000000000000000000000000000000000081565b3480156101d657600080fd5b506101887f000000000000000000000000000000000000000000000000000000000000000081565b34801561020a57600080fd5b506101887f000000000000000000000000000000000000000000000000000000000000000081565b34801561023e57600080fd5b5061012861024d366004612236565b6105bc565b34801561025e57600080fd5b5061018860045481565b34801561027457600080fd5b5061018860035481565b34801561028a57600080fd5b506101526102993660046124af565b61060e565b3480156102aa57600080fd5b506102d27f000000000000000000000000000000000000000000000000000000000000000081565b6040516001600160a01b039091168152602001610134565b3480156102f657600080fd5b50610152610993565b34801561030b57600080fd5b50610314610a30565b604080518251815260208084015190820152828201516001600160401b039081169282019290925260609283015190911691810191909152608001610134565b34801561036057600080fd5b506103ba61036f366004612236565b60408051808201825260008082526020918201819052948552600180825282862094865293815281852092855291825292839020835180850190945280548452909101549082015290565b60408051825181526020928301519281019290925201610134565b6101526103e33660046125bf565b610aae565b3480156103f457600080fd5b506101526104033660046126b5565b610cbb565b34801561041457600080fd5b5061018860055481565b60035443101561042a57565b60007f000000000000000000000000000000000000000000000000000000000000000060055411156104da5760087f00000000000000000000000000000000000000000000000000000000000000007f00000000000000000000000000000000000000000000000000000000000000006005546104a79190612807565b6104b19190612830565b6104bb9190612830565b905080600460008282546104cf9190612807565b909155506105599050565b60087f00000000000000000000000000000000000000000000000000000000000000006005547f000000000000000000000000000000000000000000000000000000000000000061052b9190612807565b6105359190612830565b61053f9190612830565b905080600460008282546105539190612844565b90915550505b7f000000000000000000000000000000000000000000000000000000000000000060045411156105a8577f00000000000000000000000000000000000000000000000000000000000000006004555b6105b143611189565b600355506000600555565b6000838152600160208181526040808420868552825280842085855282528084208151808301909252805480835293015491810191909152901515806106055750602081015115155b95945050505050565b61061661041e565b6106417f00000000000000000000000000000000000000000000000000000000000000006002612857565b600554106106a05760405162461bcd60e51b815260206004820152602160248201527f546f6f206d616e79207375626d697373696f6e7320696e206f6e6520726f756e6044820152601960fa1b60648201526084015b60405180910390fd5b6003546106af90601e90612807565b81516001600160401b0316146107075760405162461bcd60e51b815260206004820152601760248201527f556e6d6174636865642073616d706c65206865696768740000000000000000006044820152606401610697565b6004548160a0015111156107535760405162461bcd60e51b8152602060048201526013602482015272145d585b1a5d1e481b9bdd081c995858da1959606a1b6044820152606401610697565b61077c8160c0015182602001516001600160401b031683604001516001600160401b03166105bc565b6107c05760405162461bcd60e51b8152602060048201526015602482015274155b9c9958dbdc9919590818dbdb5b5a5d1b595b9d605a1b6044820152606401610697565b6107c98161120d565b60208101516040808301519051631aadbd9560e21b81526001600160401b039283166004820152911660248201526000906001600160a01b037f00000000000000000000000000000000000000000000000000000000000000001690636ab6f65490604401600060405180830381865afa15801561084b573d6000803e3d6000fd5b505050506040513d6000823e601f3d908101601f191682016040526108739190810190612876565b826060015163ffffffff168151811061088e5761088e61291c565b602002602001015190506001600560008282546108ab9190612844565b90915550506040516001600160a01b038216906108fc9060009081818181818888f193505050501580156108e3573d6000803e3d6000fd5b5081602001516001600160401b031682600001516001600160401b0316826001600160a01b03167f3f001655486d2bff183c1b9c2fafc6de667830e0534a285ba08dba2092c98ac185604001518660c001518760a00151886060015189608001516040516109879594939291906001600160401b039590951685526020850193909352604084019190915263ffffffff908116606084015216608082015260a00190565b60405180910390a45050565b60005460ff16156109f15760405162461bcd60e51b815260206004820152602260248201527f496e697469616c697a61626c653a20616c726561647920696e697469616c697a604482015261195960f21b6064820152608401610697565b6000805460ff19166001179055610a0743611189565b6003557f0000000000000000000000000000000000000000000000000000000000000000600455565b604080516080810182526000808252602082018190529181018290526060810191909152610a5c61041e565b600354600090610a6e90601e90612807565b90506040518060800160405280824081526020016004548152602001826001600160401b031681526020016005546001600160401b031681525091505090565b60007f00000000000000000000000000000000000000000000000000000000000000006001600160a01b031663f4145a836040518163ffffffff1660e01b8152600401602060405180830381865afa158015610b0e573d6000803e3d6000fd5b505050506040513d601f19601f82011682018060405250810190610b329190612932565b604051635ecba50360e01b8152600481018290529091506000906001600160a01b037f00000000000000000000000000000000000000000000000000000000000000001690635ecba50390602401602060405180830381865afa158015610b9d573d6000803e3d6000fd5b505050506040513d601f19601f82011682018060405250810190610bc19190612932565b905060008111610c135760405162461bcd60e51b815260206004820152601960248201527f4441456e7472616e63653a204e6f204441205369676e657273000000000000006044820152606401610697565b806002546001610c239190612844565b610c2d919061294b565b600255825160005b81811015610cb4577ff0bf37f8713754493879920443065424c575888634675f146c115709bbb59acb858281518110610c7057610c7061291c565b602002602001015185600254604051610c9c939291909283526020830191909152604082015260600190565b60405180910390a1610cad8161295f565b9050610c35565b5050505050565b805160005b8181101561118457610d2a838281518110610cdd57610cdd61291c565b602002602001015160000151848381518110610cfb57610cfb61291c565b602002602001015160200151858481518110610d1957610d1961291c565b6020026020010151604001516105bc565b611174576000610e1e848381518110610d4557610d4561291c565b602002602001015160000151858481518110610d6357610d6361291c565b602002602001015160200151868581518110610d8157610d8161291c565b602002602001015160400151878681518110610d9f57610d9f61291c565b60200260200101516060015160000151888781518110610dc157610dc161291c565b60200260200101516060015160200151604051602001610e03959493929190948552602085019390935260408401919091526060830152608082015260a00190565b604051602081830303815290604052805190602001206115dc565b905060008060007f00000000000000000000000000000000000000000000000000000000000000006001600160a01b03166350b73739888781518110610e6657610e6661291c565b602002602001015160200151898881518110610e8457610e8461291c565b6020026020010151604001518a8981518110610ea257610ea261291c565b6020026020010151608001516040518463ffffffff1660e01b8152600401610ecc9392919061299c565b608060405180830381865afa158015610ee9573d6000803e3d6000fd5b505050506040513d601f19601f82011682018060405250810190610f0d91906129dd565b91945092509050610f3e7f000000000000000000000000000000000000000000000000000000000000000082612857565b610f68837f0000000000000000000000000000000000000000000000000000000000000000612857565b1115610fc55760405162461bcd60e51b815260206004820152602660248201527f444152656769737472793a20696e73756666696369656e74207369676e656420604482015265736c6963657360d01b6064820152608401610697565b61100b8484898881518110610fdc57610fdc61291c565b602002602001015160a001518a8981518110610ffa57610ffa61291c565b602002602001015160c0015161166b565b86858151811061101d5761101d61291c565b6020026020010151606001516001600089888151811061103f5761103f61291c565b6020026020010151600001518152602001908152602001600020600089888151811061106d5761106d61291c565b6020026020010151602001518152602001908152602001600020600089888151811061109b5761109b61291c565b602002602001015160400151815260200190815260200160002060008201518160000155602082015181600101559050507f0f1b20d87bebd11dddaaab51f01cf2726880cb3f8073b636dbafa2aa8cacd2568786815181106110ff576110ff61291c565b60200260200101516000015188878151811061111d5761111d61291c565b60200260200101516020015189888151811061113b5761113b61291c565b602002602001015160400151604051611167939291909283526020830191909152604082015260600190565b60405180910390a1505050505b61117d8161295f565b9050610cc0565b505050565b60008082116111da5760405162461bcd60e51b815260206004820152601860248201527f6d206d7573742062652067726561746572207468616e203000000000000000006044820152606401610697565b601e8060016111e98286612844565b6111f39190612807565b6111fd9190612830565b6112079190612857565b92915050565b805161121b90601e90612a2f565b6001600160401b0316156112715760405162461bcd60e51b815260206004820152601b60248201527f426c6f636b2068656967687420776974686f75742072657761726400000000006044820152606401610697565b80516001600160401b031640806112ca5760405162461bcd60e51b815260206004820152601760248201527f43616e6e6f7420666574636820626c6f636b20686173680000000000000000006044820152606401610697565b6112d76003610400612a55565b6001600160401b0316826060015163ffffffff161061132f5760405162461bcd60e51b8152602060048201526014602482015273092dcc6dee4e4cac6e840d8d2dcca40d2dcc8caf60631b6044820152606401610697565b60206001600160401b0316826080015163ffffffff16106113925760405162461bcd60e51b815260206004820152601860248201527f496e636f7272656374207375622d6c696e6520696e64657800000000000000006044820152606401610697565b60208281015160408085015160c08087015160608089015185518089018a90526001600160401b0397881681880152969094169086015260808501521b63ffffffff60c01b1660a08301528051608881840301815260a890920190528051910120600061140f82856080015163ffffffff16866101200151611818565b90508061141e83600019612807565b111561145f5760405162461bcd60e51b815260206004820152601060248201526f5175616c697479206f766572666c6f7760801b6044820152606401610697565b60a084015161146e8284612844565b146114af5760405162461bcd60e51b8152602060048201526011602482015270496e636f7272656374207175616c69747960781b6044820152606401610697565b60206114bd61040082612a55565b6114c79190612a84565b6001600160401b0316846101200151511461151c5760405162461bcd60e51b8152602060048201526015602482015274092dcc6dee4e4cac6e840c8c2e8c240d8cadccee8d605b1b6044820152606401610697565b600061152c85610120015161184f565b90506000610400866060015163ffffffff166115489190612a84565b905060008660e00151826001600160401b03166003811061156b5761156b61291c565b602002015190506000876080015163ffffffff1660206104008a6060015163ffffffff166115999190612a2f565b6115a39190612a55565b6115ad9190612aaa565b90506115c084838a610100015184611a81565b6115d28860e001518960c00151611b8d565b5050505050505050565b60408051808201909152600080825260208201526000808061160c600080516020612b748339815191528661294b565b90505b61161881611bdd565b9093509150600080516020612b748339815191528283098303611651576040805180820190915290815260208101919091529392505050565b600080516020612b7483398151915260018208905061160f565b60007f30644e72e131a029b85045b68181585d2833e84879b9709143e1f593f00000018260000151836020015186600001518760200151876000015188602001518b600001518c602001516040516020016116cd989796959493929190612afa565b6040516020818303038152906040528051906020012060001c6116f0919061294b565b905060008061175e61170c6117058886611c5f565b8690611cf0565b611714611d85565b61175461174d87611747604080518082018252600080825260209182015281518083019092526001825260029082015290565b90611c5f565b8b90611cf0565b886201d4c0611e45565b91509150816117c25760405162461bcd60e51b815260206004820152602a60248201527f444152656769737472793a2070616972696e6720707265636f6d70696c652063604482015269185b1b0819985a5b195960b21b6064820152608401610697565b8061180f5760405162461bcd60e51b815260206004820181905260248201527f444152656769737472793a207369676e617475726520697320696e76616c69646044820152606401610697565b50505050505050565b600083838360405160200161182f93929190612b46565b60408051601f198184030181529190528051602090910120949350505050565b80516000906101008110801590611870575061186c600182612807565b8116155b6118db5760405162461bcd60e51b815260206004820152603660248201527f44617461206c656e677468206d7573742062652067726561746572207468616e60448201527510191a9b1030b7321030903837bbb2b91037b310191760511b6064820152608401610697565b60006118e961010083612830565b90506000816001600160401b0381111561190557611905612262565b60405190808252806020026020018201604052801561192e578160200160208202803683370190505b50905060005b8281101561197c576101008181028701602001208251819084908490811061195e5761195e61291c565b602090810291909101015250806119748161295f565b915050611934565b505b6001821115611a5c576000611994600284612830565b905060005b81811015611a5457611a25836119b0836002612857565b815181106119c0576119c061291c565b6020026020010151848360026119d69190612857565b6119e1906001612844565b815181106119f1576119f161291c565b6020026020010151604080516020808201949094528082019290925280518083038201815260609092019052805191012090565b838281518110611a3757611a3761291c565b602090810291909101015280611a4c8161295f565b915050611999565b50915061197e565b80600081518110611a6f57611a6f61291c565b60200260200101519350505050919050565b8360005b8351811015611b47576000848281518110611aa257611aa261291c565b60200260200101519050600284611ab99190612a2f565b6001600160401b0316600003611af857604080516020808201869052818301849052825180830384018152606090920190925280519101209250611b23565b6040805160208082018490528183018690528251808303840181526060909201909252805191012092505b6001846001600160401b0316901c9350508080611b3f9061295f565b915050611a85565b50838114610cb45760405162461bcd60e51b8152602060048201526013602482015272125b98dbdc9c9958dd08189b1bd888149bdbdd606a1b6044820152606401610697565b80611b9783612069565b14611bd95760405162461bcd60e51b8152602060048201526012602482015271125b98dbdc9c9958dd0819185d18549bdbdd60721b6044820152606401610697565b5050565b60008080600080516020612b748339815191526003600080516020612b7483398151915286600080516020612b74833981519152888909090890506000611c53827f0c19139cb84c680a6e14116da060561765e05aa45a1c72a34f082305b61f3f52600080516020612b748339815191526120b3565b91959194509092505050565b6040805180820190915260008082526020820152611c7b61215c565b835181526020808501519082015260408082018490526000908360608460076107d05a03fa90508080611caa57fe5b5080611ce85760405162461bcd60e51b815260206004820152600d60248201526c1958cb5b5d5b0b59985a5b1959609a1b6044820152606401610697565b505092915050565b6040805180820190915260008082526020820152611d0c61217a565b835181526020808501518183015283516040808401919091529084015160608301526000908360808460066107d05a03fa90508080611d4757fe5b5080611ce85760405162461bcd60e51b815260206004820152600d60248201526c1958cb5859190b59985a5b1959609a1b6044820152606401610697565b611d8d612198565b50604080516080810182527f198e9393920d483a7260bfb731fb5d25f1aa493335a9e71297e485b7aef312c28183019081527f1800deef121f1e76426a00665e5c4479674322d4f75edadd46debd5cd992f6ed6060830152815281518083019092527f275dc4a288d1afb3cbb1ac09187524c7db36395df7be3b99e673b13a075a65ec82527f1d9befcd05a5323e6da4d435f3b617cdb3af83285c2df711ef39c01571827f9d60208381019190915281019190915290565b604080518082018252868152602080820186905282518084019093528683528201849052600091829190611e776121bd565b60005b600281101561203c576000611e90826006612857565b9050848260028110611ea457611ea461291c565b60200201515183611eb6836000612844565b600c8110611ec657611ec661291c565b6020020152848260028110611edd57611edd61291c565b60200201516020015183826001611ef49190612844565b600c8110611f0457611f0461291c565b6020020152838260028110611f1b57611f1b61291c565b6020020151515183611f2e836002612844565b600c8110611f3e57611f3e61291c565b6020020152838260028110611f5557611f5561291c565b6020020151516001602002015183611f6e836003612844565b600c8110611f7e57611f7e61291c565b6020020152838260028110611f9557611f9561291c565b602002015160200151600060028110611fb057611fb061291c565b602002015183611fc1836004612844565b600c8110611fd157611fd161291c565b6020020152838260028110611fe857611fe861291c565b6020020151602001516001600281106120035761200361291c565b602002015183612014836005612844565b600c81106120245761202461291c565b602002015250806120348161295f565b915050611e7a565b506120456121dc565b60006020826101808560088cfa9151919c9115159b50909950505050505050505050565b8051600090611207906120ab908460015b6020020151604080516020808201949094528082019290925280518083038201815260609092019052805191012090565b83600261207a565b6000806120be6121dc565b6120c66121fa565b602080825281810181905260408201819052606082018890526080820187905260a082018690528260c08360056107d05a03fa9250828061210357fe5b50826121515760405162461bcd60e51b815260206004820152601a60248201527f424e3235342e6578704d6f643a2063616c6c206661696c7572650000000000006044820152606401610697565b505195945050505050565b60405180606001604052806003906020820280368337509192915050565b60405180608001604052806004906020820280368337509192915050565b60405180604001604052806121ab612218565b81526020016121b8612218565b905290565b604051806101800160405280600c906020820280368337509192915050565b60405180602001604052806001906020820280368337509192915050565b6040518060c001604052806006906020820280368337509192915050565b60405180604001604052806002906020820280368337509192915050565b60008060006060848603121561224b57600080fd5b505081359360208301359350604090920135919050565b634e487b7160e01b600052604160045260246000fd5b60405161014081016001600160401b038111828210171561229b5761229b612262565b60405290565b604080519081016001600160401b038111828210171561229b5761229b612262565b60405160e081016001600160401b038111828210171561229b5761229b612262565b604051601f8201601f191681016001600160401b038111828210171561230d5761230d612262565b604052919050565b80356001600160401b038116811461232c57600080fd5b919050565b803563ffffffff8116811461232c57600080fd5b600082601f83011261235657600080fd5b604051606081018181106001600160401b038211171561237857612378612262565b60405280606084018581111561238d57600080fd5b845b818110156123a757803583526020928301920161238f565b509195945050505050565b60006001600160401b038211156123cb576123cb612262565b5060051b60200190565b600082601f8301126123e657600080fd5b813560206123fb6123f6836123b2565b6122e5565b82815260059290921b8401810191818101908684111561241a57600080fd5b8286015b84811015612435578035835291830191830161241e565b509695505050505050565b600082601f83011261245157600080fd5b81356001600160401b0381111561246a5761246a612262565b61247d601f8201601f19166020016122e5565b81815284602083860101111561249257600080fd5b816020850160208301376000918101602001919091529392505050565b6000602082840312156124c157600080fd5b81356001600160401b03808211156124d857600080fd5b9083019061018082860312156124ed57600080fd5b6124f5612278565b6124fe83612315565b815261250c60208401612315565b602082015261251d60408401612315565b604082015261252e60608401612331565b606082015261253f60808401612331565b608082015260a083013560a082015260c083013560c08201526125658660e08501612345565b60e08201526101408301358281111561257d57600080fd5b612589878286016123d5565b61010083015250610160830135828111156125a357600080fd5b6125af87828601612440565b6101208301525095945050505050565b6000602082840312156125d157600080fd5b81356001600160401b038111156125e757600080fd5b6125f3848285016123d5565b949350505050565b60006040828403121561260d57600080fd5b6126156122a1565b9050813581526020820135602082015292915050565b600082601f83011261263c57600080fd5b604051604081018181106001600160401b038211171561265e5761265e612262565b806040525080604084018581111561238d57600080fd5b60006080828403121561268757600080fd5b61268f6122a1565b905061269b838361262b565b81526126aa836040840161262b565b602082015292915050565b600060208083850312156126c857600080fd5b82356001600160401b03808211156126df57600080fd5b818501915085601f8301126126f357600080fd5b81356127016123f6826123b2565b81815260059190911b8301840190848101908883111561272057600080fd5b8585015b838110156127e45780358581111561273c5760008081fd5b8601610180818c03601f190112156127545760008081fd5b61275c6122c3565b8882013581526040808301358a83015260608084013582840152608091506127868e8386016125fb565b9083015260c0838101358981111561279e5760008081fd5b6127ac8f8d83880101612440565b83850152506127be8e60e08601612675565b60a08401526127d18e61016086016125fb565b9083015250845250918601918601612724565b5098975050505050505050565b634e487b7160e01b600052601160045260246000fd5b81810381811115611207576112076127f1565b634e487b7160e01b600052601260045260246000fd5b60008261283f5761283f61281a565b500490565b80820180821115611207576112076127f1565b6000816000190483118215151615612871576128716127f1565b500290565b6000602080838503121561288957600080fd5b82516001600160401b0381111561289f57600080fd5b8301601f810185136128b057600080fd5b80516128be6123f6826123b2565b81815260059190911b820183019083810190878311156128dd57600080fd5b928401925b828410156129115783516001600160a01b03811681146129025760008081fd5b825292840192908401906128e2565b979650505050505050565b634e487b7160e01b600052603260045260246000fd5b60006020828403121561294457600080fd5b5051919050565b60008261295a5761295a61281a565b500690565b600060018201612971576129716127f1565b5060010190565b60005b8381101561299357818101518382015260200161297b565b50506000910152565b83815282602082015260606040820152600082518060608401526129c7816080850160208701612978565b601f01601f191691909101608001949350505050565b600080600083850360808112156129f357600080fd5b6040811215612a0157600080fd5b50612a0a6122a1565b8451815260208086015190820152604085015160609095015190969495509392505050565b60006001600160401b0380841680612a4957612a4961281a565b92169190910692915050565b60006001600160401b0380831681851681830481118215151615612a7b57612a7b6127f1565b02949350505050565b60006001600160401b0380841680612a9e57612a9e61281a565b92169190910492915050565b6001600160401b03818116838216019080821115612aca57612aca6127f1565b5092915050565b8060005b6002811015612af4578151845260209384019390910190600101612ad5565b50505050565b888152876020820152866040820152856060820152612b1c6080820186612ad1565b612b2960c0820185612ad1565b610100810192909252610120820152610140019695505050505050565b83815282602082015260008251612b64816040850160208701612978565b9190910160400194935050505056fe30644e72e131a029b85045b68181585d97816a916871ca8d3c208c16d87cfd47a26469706673582212200166f2fe58d55d73c1e015459d05136adbbd4acfae4c0634f8dc83f3e511ce7164736f6c63430008100033",
  "linkReferences": {},
  "deployedLinkReferences": {}
}